{
  "contractName": "JewelCoin",
  "abi": [
    {
      "inputs": [
        {
          "internalType": "string",
          "name": "name",
          "type": "string"
        },
        {
          "internalType": "string",
          "name": "symbol",
          "type": "string"
        },
        {
          "internalType": "uint256",
          "name": "initialSupply",
          "type": "uint256"
        }
      ],
      "stateMutability": "nonpayable",
      "type": "constructor"
    },
    {
      "anonymous": false,
      "inputs": [
        {
          "indexed": true,
          "internalType": "address",
          "name": "owner",
          "type": "address"
        },
        {
          "indexed": true,
          "internalType": "address",
          "name": "spender",
          "type": "address"
        },
        {
          "indexed": false,
          "internalType": "uint256",
          "name": "value",
          "type": "uint256"
        }
      ],
      "name": "Approval",
      "type": "event"
    },
    {
      "anonymous": false,
      "inputs": [
        {
          "indexed": false,
          "internalType": "address",
          "name": "user",
          "type": "address"
        }
      ],
      "name": "ChecksoloAdmin",
      "type": "event"
    },
    {
      "anonymous": false,
      "inputs": [
        {
          "indexed": false,
          "internalType": "address",
          "name": "user",
          "type": "address"
        }
      ],
      "name": "ChecksoloMinters",
      "type": "event"
    },
    {
      "anonymous": false,
      "inputs": [
        {
          "indexed": false,
          "internalType": "address",
          "name": "user",
          "type": "address"
        },
        {
          "indexed": false,
          "internalType": "address",
          "name": "sender",
          "type": "address"
        },
        {
          "indexed": false,
          "internalType": "bytes32",
          "name": "role",
          "type": "bytes32"
        },
        {
          "indexed": false,
          "internalType": "bytes32",
          "name": "adminRole",
          "type": "bytes32"
        },
        {
          "indexed": false,
          "internalType": "bytes32",
          "name": "senderRole",
          "type": "bytes32"
        }
      ],
      "name": "Debug",
      "type": "event"
    },
    {
      "anonymous": false,
      "inputs": [
        {
          "indexed": true,
          "internalType": "bytes32",
          "name": "role",
          "type": "bytes32"
        },
        {
          "indexed": true,
          "internalType": "bytes32",
          "name": "previousAdminRole",
          "type": "bytes32"
        },
        {
          "indexed": true,
          "internalType": "bytes32",
          "name": "newAdminRole",
          "type": "bytes32"
        }
      ],
      "name": "RoleAdminChanged",
      "type": "event"
    },
    {
      "anonymous": false,
      "inputs": [
        {
          "indexed": true,
          "internalType": "bytes32",
          "name": "role",
          "type": "bytes32"
        },
        {
          "indexed": true,
          "internalType": "address",
          "name": "account",
          "type": "address"
        },
        {
          "indexed": true,
          "internalType": "address",
          "name": "sender",
          "type": "address"
        }
      ],
      "name": "RoleGranted",
      "type": "event"
    },
    {
      "anonymous": false,
      "inputs": [
        {
          "indexed": true,
          "internalType": "bytes32",
          "name": "role",
          "type": "bytes32"
        },
        {
          "indexed": true,
          "internalType": "address",
          "name": "account",
          "type": "address"
        },
        {
          "indexed": true,
          "internalType": "address",
          "name": "sender",
          "type": "address"
        }
      ],
      "name": "RoleRevoked",
      "type": "event"
    },
    {
      "anonymous": false,
      "inputs": [
        {
          "indexed": true,
          "internalType": "address",
          "name": "from",
          "type": "address"
        },
        {
          "indexed": true,
          "internalType": "address",
          "name": "to",
          "type": "address"
        },
        {
          "indexed": false,
          "internalType": "uint256",
          "name": "value",
          "type": "uint256"
        }
      ],
      "name": "Transfer",
      "type": "event"
    },
    {
      "inputs": [],
      "name": "DEFAULT_ADMIN_ROLE",
      "outputs": [
        {
          "internalType": "bytes32",
          "name": "",
          "type": "bytes32"
        }
      ],
      "stateMutability": "view",
      "type": "function"
    },
    {
      "inputs": [],
      "name": "MINTER_ROLE",
      "outputs": [
        {
          "internalType": "bytes32",
          "name": "",
          "type": "bytes32"
        }
      ],
      "stateMutability": "view",
      "type": "function"
    },
    {
      "inputs": [
        {
          "internalType": "address",
          "name": "owner",
          "type": "address"
        },
        {
          "internalType": "address",
          "name": "spender",
          "type": "address"
        }
      ],
      "name": "allowance",
      "outputs": [
        {
          "internalType": "uint256",
          "name": "",
          "type": "uint256"
        }
      ],
      "stateMutability": "view",
      "type": "function"
    },
    {
      "inputs": [
        {
          "internalType": "address",
          "name": "spender",
          "type": "address"
        },
        {
          "internalType": "uint256",
          "name": "amount",
          "type": "uint256"
        }
      ],
      "name": "approve",
      "outputs": [
        {
          "internalType": "bool",
          "name": "",
          "type": "bool"
        }
      ],
      "stateMutability": "nonpayable",
      "type": "function"
    },
    {
      "inputs": [
        {
          "internalType": "address",
          "name": "account",
          "type": "address"
        }
      ],
      "name": "balanceOf",
      "outputs": [
        {
          "internalType": "uint256",
          "name": "",
          "type": "uint256"
        }
      ],
      "stateMutability": "view",
      "type": "function"
    },
    {
      "inputs": [],
      "name": "decimals",
      "outputs": [
        {
          "internalType": "uint8",
          "name": "",
          "type": "uint8"
        }
      ],
      "stateMutability": "view",
      "type": "function"
    },
    {
      "inputs": [
        {
          "internalType": "address",
          "name": "spender",
          "type": "address"
        },
        {
          "internalType": "uint256",
          "name": "subtractedValue",
          "type": "uint256"
        }
      ],
      "name": "decreaseAllowance",
      "outputs": [
        {
          "internalType": "bool",
          "name": "",
          "type": "bool"
        }
      ],
      "stateMutability": "nonpayable",
      "type": "function"
    },
    {
      "inputs": [
        {
          "internalType": "bytes32",
          "name": "role",
          "type": "bytes32"
        }
      ],
      "name": "getRoleAdmin",
      "outputs": [
        {
          "internalType": "bytes32",
          "name": "",
          "type": "bytes32"
        }
      ],
      "stateMutability": "view",
      "type": "function"
    },
    {
      "inputs": [
        {
          "internalType": "bytes32",
          "name": "role",
          "type": "bytes32"
        },
        {
          "internalType": "address",
          "name": "account",
          "type": "address"
        }
      ],
      "name": "grantRole",
      "outputs": [],
      "stateMutability": "nonpayable",
      "type": "function"
    },
    {
      "inputs": [
        {
          "internalType": "bytes32",
          "name": "role",
          "type": "bytes32"
        },
        {
          "internalType": "address",
          "name": "account",
          "type": "address"
        }
      ],
      "name": "hasRole",
      "outputs": [
        {
          "internalType": "bool",
          "name": "",
          "type": "bool"
        }
      ],
      "stateMutability": "view",
      "type": "function"
    },
    {
      "inputs": [
        {
          "internalType": "address",
          "name": "spender",
          "type": "address"
        },
        {
          "internalType": "uint256",
          "name": "addedValue",
          "type": "uint256"
        }
      ],
      "name": "increaseAllowance",
      "outputs": [
        {
          "internalType": "bool",
          "name": "",
          "type": "bool"
        }
      ],
      "stateMutability": "nonpayable",
      "type": "function"
    },
    {
      "inputs": [],
      "name": "name",
      "outputs": [
        {
          "internalType": "string",
          "name": "",
          "type": "string"
        }
      ],
      "stateMutability": "view",
      "type": "function"
    },
    {
      "inputs": [
        {
          "internalType": "bytes32",
          "name": "role",
          "type": "bytes32"
        },
        {
          "internalType": "address",
          "name": "account",
          "type": "address"
        }
      ],
      "name": "renounceRole",
      "outputs": [],
      "stateMutability": "nonpayable",
      "type": "function"
    },
    {
      "inputs": [
        {
          "internalType": "bytes32",
          "name": "role",
          "type": "bytes32"
        },
        {
          "internalType": "address",
          "name": "account",
          "type": "address"
        }
      ],
      "name": "revokeRole",
      "outputs": [],
      "stateMutability": "nonpayable",
      "type": "function"
    },
    {
      "inputs": [
        {
          "internalType": "bytes4",
          "name": "interfaceId",
          "type": "bytes4"
        }
      ],
      "name": "supportsInterface",
      "outputs": [
        {
          "internalType": "bool",
          "name": "",
          "type": "bool"
        }
      ],
      "stateMutability": "view",
      "type": "function"
    },
    {
      "inputs": [],
      "name": "symbol",
      "outputs": [
        {
          "internalType": "string",
          "name": "",
          "type": "string"
        }
      ],
      "stateMutability": "view",
      "type": "function"
    },
    {
      "inputs": [],
      "name": "totalSupply",
      "outputs": [
        {
          "internalType": "uint256",
          "name": "",
          "type": "uint256"
        }
      ],
      "stateMutability": "view",
      "type": "function"
    },
    {
      "inputs": [
        {
          "internalType": "address",
          "name": "to",
          "type": "address"
        },
        {
          "internalType": "uint256",
          "name": "amount",
          "type": "uint256"
        }
      ],
      "name": "transfer",
      "outputs": [
        {
          "internalType": "bool",
          "name": "",
          "type": "bool"
        }
      ],
      "stateMutability": "nonpayable",
      "type": "function"
    },
    {
      "inputs": [
        {
          "internalType": "address",
          "name": "from",
          "type": "address"
        },
        {
          "internalType": "address",
          "name": "to",
          "type": "address"
        },
        {
          "internalType": "uint256",
          "name": "amount",
          "type": "uint256"
        }
      ],
      "name": "transferFrom",
      "outputs": [
        {
          "internalType": "bool",
          "name": "",
          "type": "bool"
        }
      ],
      "stateMutability": "nonpayable",
      "type": "function"
    },
    {
      "inputs": [
        {
          "internalType": "address",
          "name": "account",
          "type": "address"
        }
      ],
      "name": "isAdmin",
      "outputs": [
        {
          "internalType": "bool",
          "name": "",
          "type": "bool"
        }
      ],
      "stateMutability": "view",
      "type": "function"
    },
    {
      "inputs": [
        {
          "internalType": "address",
          "name": "account",
          "type": "address"
        }
      ],
      "name": "isMinter",
      "outputs": [
        {
          "internalType": "bool",
          "name": "",
          "type": "bool"
        }
      ],
      "stateMutability": "view",
      "type": "function"
    },
    {
      "inputs": [
        {
          "internalType": "address",
          "name": "to",
          "type": "address"
        },
        {
          "internalType": "uint256",
          "name": "amount",
          "type": "uint256"
        }
      ],
      "name": "mint",
      "outputs": [],
      "stateMutability": "nonpayable",
      "type": "function"
    },
    {
      "inputs": [
        {
          "internalType": "address",
          "name": "to",
          "type": "address"
        }
      ],
      "name": "addMinterRole",
      "outputs": [],
      "stateMutability": "nonpayable",
      "type": "function"
    },
    {
      "inputs": [
        {
          "internalType": "address",
          "name": "to",
          "type": "address"
        }
      ],
      "name": "removeMinterRole",
      "outputs": [],
      "stateMutability": "nonpayable",
      "type": "function"
    },
    {
      "inputs": [
        {
          "internalType": "address",
          "name": "to",
          "type": "address"
        }
      ],
      "name": "setDestinatario",
      "outputs": [],
      "stateMutability": "nonpayable",
      "type": "function"
    },
    {
      "inputs": [
        {
          "internalType": "uint256",
          "name": "price",
          "type": "uint256"
        },
        {
          "internalType": "uint256",
          "name": "itemId",
          "type": "uint256"
        }
      ],
      "name": "payItem",
      "outputs": [
        {
          "internalType": "uint256",
          "name": "",
          "type": "uint256"
        }
      ],
      "stateMutability": "nonpayable",
      "type": "function"
    }
  ],
  "bytecode": "0x60806040523480156200001157600080fd5b506040516200332738038062003327833981810160405281019062000037919062000717565b828281600390816200004a9190620009f2565b5080600490816200005c9190620009f2565b505050620000713382620001d360201b60201c565b620000866000801b336200034060201b60201c565b620000bb7f9f2df0fed2c77648de5860a4cc508cd0818c85b8b8a1ab4ceeef8d981c8956a66000801b6200035660201b60201c565b6801158e460913d00000600760008081526020019081526020016000208190555068022b1c8c1227a0000060076000600181526020019081526020016000208190555068022b1c8c1227a000006007600060028152602001908152602001600020819055506802b5e3af16b18800006007600060038152602001908152602001600020819055506804563918244f4000006007600060048152602001908152602001600020819055506805f68e8131ecf8000060076000600581526020019081526020016000208190555068068155a43676e00000600760006006815260200190815260200160002081905550680d8d726b7177a8000060076000600781526020019081526020016000208190555050505062000bf4565b600073ffffffffffffffffffffffffffffffffffffffff168273ffffffffffffffffffffffffffffffffffffffff160362000245576040517f08c379a00000000000000000000000000000000000000000000000000000000081526004016200023c9062000b3a565b60405180910390fd5b6200025960008383620003ba60201b60201c565b80600260008282546200026d919062000b8b565b92505081905550806000808473ffffffffffffffffffffffffffffffffffffffff1673ffffffffffffffffffffffffffffffffffffffff168152602001908152602001600020600082825401925050819055508173ffffffffffffffffffffffffffffffffffffffff16600073ffffffffffffffffffffffffffffffffffffffff167fddf252ad1be2c89b69c2b068fc378daa952ba7f163c4a11628f55a4df523b3ef8360405162000320919062000bd7565b60405180910390a36200033c60008383620003bf60201b60201c565b5050565b620003528282620003c460201b60201c565b5050565b60006200036983620004b660201b60201c565b90508160056000858152602001908152602001600020600101819055508181847fbd79b86ffe0ab8e8776151514217cd7cacd52c909f66475c3af44e129f0b00ff60405160405180910390a4505050565b505050565b505050565b620003d68282620004d660201b60201c565b620004b25760016005600084815260200190815260200160002060000160008373ffffffffffffffffffffffffffffffffffffffff1673ffffffffffffffffffffffffffffffffffffffff16815260200190815260200160002060006101000a81548160ff021916908315150217905550620004576200054160201b60201c565b73ffffffffffffffffffffffffffffffffffffffff168173ffffffffffffffffffffffffffffffffffffffff16837f2f8788117e7eff1d82e926ec794901d17c78024a50270940304540a733656f0d60405160405180910390a45b5050565b600060056000838152602001908152602001600020600101549050919050565b60006005600084815260200190815260200160002060000160008373ffffffffffffffffffffffffffffffffffffffff1673ffffffffffffffffffffffffffffffffffffffff16815260200190815260200160002060009054906101000a900460ff16905092915050565b600033905090565b6000604051905090565b600080fd5b600080fd5b600080fd5b600080fd5b6000601f19601f8301169050919050565b7f4e487b7100000000000000000000000000000000000000000000000000000000600052604160045260246000fd5b620005b28262000567565b810181811067ffffffffffffffff82111715620005d457620005d362000578565b5b80604052505050565b6000620005e962000549565b9050620005f78282620005a7565b919050565b600067ffffffffffffffff8211156200061a576200061962000578565b5b620006258262000567565b9050602081019050919050565b60005b838110156200065257808201518184015260208101905062000635565b60008484015250505050565b6000620006756200066f84620005fc565b620005dd565b90508281526020810184848401111562000694576200069362000562565b5b620006a184828562000632565b509392505050565b600082601f830112620006c157620006c06200055d565b5b8151620006d38482602086016200065e565b91505092915050565b6000819050919050565b620006f181620006dc565b8114620006fd57600080fd5b50565b6000815190506200071181620006e6565b92915050565b60008060006060848603121562000733576200073262000553565b5b600084015167ffffffffffffffff81111562000754576200075362000558565b5b6200076286828701620006a9565b935050602084015167ffffffffffffffff81111562000786576200078562000558565b5b6200079486828701620006a9565b9250506040620007a78682870162000700565b9150509250925092565b600081519050919050565b7f4e487b7100000000000000000000000000000000000000000000000000000000600052602260045260246000fd5b600060028204905060018216806200080457607f821691505b6020821081036200081a5762000819620007bc565b5b50919050565b60008190508160005260206000209050919050565b60006020601f8301049050919050565b600082821b905092915050565b600060088302620008847fffffffffffffffffffffffffffffffffffffffffffffffffffffffffffffffff8262000845565b62000890868362000845565b95508019841693508086168417925050509392505050565b6000819050919050565b6000620008d3620008cd620008c784620006dc565b620008a8565b620006dc565b9050919050565b6000819050919050565b620008ef83620008b2565b62000907620008fe82620008da565b84845462000852565b825550505050565b600090565b6200091e6200090f565b6200092b818484620008e4565b505050565b5b8181101562000953576200094760008262000914565b60018101905062000931565b5050565b601f821115620009a2576200096c8162000820565b620009778462000835565b8101602085101562000987578190505b6200099f620009968562000835565b83018262000930565b50505b505050565b600082821c905092915050565b6000620009c760001984600802620009a7565b1980831691505092915050565b6000620009e28383620009b4565b9150826002028217905092915050565b620009fd82620007b1565b67ffffffffffffffff81111562000a195762000a1862000578565b5b62000a258254620007eb565b62000a3282828562000957565b600060209050601f83116001811462000a6a576000841562000a55578287015190505b62000a618582620009d4565b86555062000ad1565b601f19841662000a7a8662000820565b60005b8281101562000aa45784890151825560018201915060208501945060208101905062000a7d565b8683101562000ac4578489015162000ac0601f891682620009b4565b8355505b6001600288020188555050505b505050505050565b600082825260208201905092915050565b7f45524332303a206d696e7420746f20746865207a65726f206164647265737300600082015250565b600062000b22601f8362000ad9565b915062000b2f8262000aea565b602082019050919050565b6000602082019050818103600083015262000b558162000b13565b9050919050565b7f4e487b7100000000000000000000000000000000000000000000000000000000600052601160045260246000fd5b600062000b9882620006dc565b915062000ba583620006dc565b925082820190508082111562000bc05762000bbf62000b5c565b5b92915050565b62000bd181620006dc565b82525050565b600060208201905062000bee600083018462000bc6565b92915050565b6127238062000c046000396000f3fe608060405234801561001057600080fd5b506004361061018e5760003560e01c806370a08231116100de578063a9059cbb11610097578063b2663ec211610071578063b2663ec2146104e1578063d539139314610511578063d547741f1461052f578063dd62ed3e1461054b5761018e565b8063a9059cbb14610465578063aa271e1a14610495578063adbf3776146104c55761018e565b806370a082311461037d57806391d14854146103ad5780639470c31e146103dd57806395d89b41146103f9578063a217fddf14610417578063a457c2d7146104355761018e565b806324d7806c1161014b57806336568abe1161012557806336568abe146102f9578063395093511461031557806340c10f191461034557806354f1e126146103615761018e565b806324d7806c1461028f5780632f2ff15d146102bf578063313ce567146102db5761018e565b806301ffc9a71461019357806306fdde03146101c3578063095ea7b3146101e157806318160ddd1461021157806323b872dd1461022f578063248a9ca31461025f575b600080fd5b6101ad60048036038101906101a891906119a5565b61057b565b6040516101ba91906119ed565b60405180910390f35b6101cb6105f5565b6040516101d89190611a98565b60405180910390f35b6101fb60048036038101906101f69190611b4e565b610687565b60405161020891906119ed565b60405180910390f35b6102196106aa565b6040516102269190611b9d565b60405180910390f35b61024960048036038101906102449190611bb8565b6106b4565b60405161025691906119ed565b60405180910390f35b61027960048036038101906102749190611c41565b6106e3565b6040516102869190611c7d565b60405180910390f35b6102a960048036038101906102a49190611c98565b610703565b6040516102b691906119ed565b60405180910390f35b6102d960048036038101906102d49190611cc5565b610719565b005b6102e361073a565b6040516102f09190611d21565b60405180910390f35b610313600480360381019061030e9190611cc5565b610743565b005b61032f600480360381019061032a9190611b4e565b6107c6565b60405161033c91906119ed565b60405180910390f35b61035f600480360381019061035a9190611b4e565b6107fd565b005b61037b60048036038101906103769190611c98565b61088a565b005b61039760048036038101906103929190611c98565b6108b7565b6040516103a49190611b9d565b60405180910390f35b6103c760048036038101906103c29190611cc5565b6108ff565b6040516103d491906119ed565b60405180910390f35b6103f760048036038101906103f29190611c98565b61096a565b005b610401610a2d565b60405161040e9190611a98565b60405180910390f35b61041f610abf565b60405161042c9190611c7d565b60405180910390f35b61044f600480360381019061044a9190611b4e565b610ac6565b60405161045c91906119ed565b60405180910390f35b61047f600480360381019061047a9190611b4e565b610b3d565b60405161048c91906119ed565b60405180910390f35b6104af60048036038101906104aa9190611c98565b610b60565b6040516104bc91906119ed565b60405180910390f35b6104df60048036038101906104da9190611c98565b610b93565b005b6104fb60048036038101906104f69190611d3c565b610cc9565b6040516105089190611b9d565b60405180910390f35b610519610d1a565b6040516105269190611c7d565b60405180910390f35b61054960048036038101906105449190611cc5565b610d3e565b005b61056560048036038101906105609190611d7c565b610d5f565b6040516105729190611b9d565b60405180910390f35b60007f7965db0b000000000000000000000000000000000000000000000000000000007bffffffffffffffffffffffffffffffffffffffffffffffffffffffff1916827bffffffffffffffffffffffffffffffffffffffffffffffffffffffff191614806105ee57506105ed82610de6565b5b9050919050565b60606003805461060490611deb565b80601f016020809104026020016040519081016040528092919081815260200182805461063090611deb565b801561067d5780601f106106525761010080835404028352916020019161067d565b820191906000526020600020905b81548152906001019060200180831161066057829003601f168201915b5050505050905090565b600080610692610e50565b905061069f818585610e58565b600191505092915050565b6000600254905090565b6000806106bf610e50565b90506106cc858285611021565b6106d78585856110ad565b60019150509392505050565b600060056000838152602001908152602001600020600101549050919050565b60006107126000801b836108ff565b9050919050565b610722826106e3565b61072b81611323565b6107358383611337565b505050565b60006012905090565b61074b610e50565b73ffffffffffffffffffffffffffffffffffffffff168173ffffffffffffffffffffffffffffffffffffffff16146107b8576040517f08c379a00000000000000000000000000000000000000000000000000000000081526004016107af90611e8e565b60405180910390fd5b6107c28282611418565b5050565b6000806107d1610e50565b90506107f28185856107e38589610d5f565b6107ed9190611edd565b610e58565b600191505092915050565b7f30961df266e1c49061f4de998a0d33e0a256c0b6b9a896ed98ac9293063b7cc73360405161082c9190611f20565b60405180910390a161083d33610b60565b61087c576040517f08c379a000000000000000000000000000000000000000000000000000000000815260040161087390611f87565b60405180910390fd5b61088682826114fa565b5050565b6108b47f9f2df0fed2c77648de5860a4cc508cd0818c85b8b8a1ab4ceeef8d981c8956a682610743565b50565b60008060008373ffffffffffffffffffffffffffffffffffffffff1673ffffffffffffffffffffffffffffffffffffffff168152602001908152602001600020549050919050565b60006005600084815260200190815260200160002060000160008373ffffffffffffffffffffffffffffffffffffffff1673ffffffffffffffffffffffffffffffffffffffff16815260200190815260200160002060009054906101000a900460ff16905092915050565b7ff8ef03ce9f2cfdd733d77d52a15531b9932a15f9d03c8f7705d67e6fdeb11e6f336040516109999190611f20565b60405180910390a16109aa33610703565b6109e9576040517f08c379a00000000000000000000000000000000000000000000000000000000081526004016109e090611ff3565b60405180910390fd5b80600660006101000a81548173ffffffffffffffffffffffffffffffffffffffff021916908373ffffffffffffffffffffffffffffffffffffffff16021790555050565b606060048054610a3c90611deb565b80601f0160208091040260200160405190810160405280929190818152602001828054610a6890611deb565b8015610ab55780601f10610a8a57610100808354040283529160200191610ab5565b820191906000526020600020905b815481529060010190602001808311610a9857829003601f168201915b5050505050905090565b6000801b81565b600080610ad1610e50565b90506000610adf8286610d5f565b905083811015610b24576040517f08c379a0000000000000000000000000000000000000000000000000000000008152600401610b1b90612085565b60405180910390fd5b610b318286868403610e58565b60019250505092915050565b600080610b48610e50565b9050610b558185856110ad565b600191505092915050565b6000610b8c7f9f2df0fed2c77648de5860a4cc508cd0818c85b8b8a1ab4ceeef8d981c8956a6836108ff565b9050919050565b7ff8ef03ce9f2cfdd733d77d52a15531b9932a15f9d03c8f7705d67e6fdeb11e6f33604051610bc29190611f20565b60405180910390a1610bd333610703565b610c12576040517f08c379a0000000000000000000000000000000000000000000000000000000008152600401610c0990611ff3565b60405180910390fd5b7ffbeaa2d4b24ea8784b2e518c3040f6dfe5edce67a0ffce9f5162d2a149b3523c81337f9f2df0fed2c77648de5860a4cc508cd0818c85b8b8a1ab4ceeef8d981c8956a6610c7f7f9f2df0fed2c77648de5860a4cc508cd0818c85b8b8a1ab4ceeef8d981c8956a66106e3565b6000801b604051610c949594939291906120a5565b60405180910390a1610cc67f9f2df0fed2c77648de5860a4cc508cd0818c85b8b8a1ab4ceeef8d981c8956a682610719565b50565b600082600760008481526020019081526020016000205414610cea57600080fd5b610d087378f247fe3ccee2abb9ea8a354f186ce5eb1df53884610b3d565b610d1157600080fd5b81905092915050565b7f9f2df0fed2c77648de5860a4cc508cd0818c85b8b8a1ab4ceeef8d981c8956a681565b610d47826106e3565b610d5081611323565b610d5a8383611418565b505050565b6000600160008473ffffffffffffffffffffffffffffffffffffffff1673ffffffffffffffffffffffffffffffffffffffff16815260200190815260200160002060008373ffffffffffffffffffffffffffffffffffffffff1673ffffffffffffffffffffffffffffffffffffffff16815260200190815260200160002054905092915050565b60007f01ffc9a7000000000000000000000000000000000000000000000000000000007bffffffffffffffffffffffffffffffffffffffffffffffffffffffff1916827bffffffffffffffffffffffffffffffffffffffffffffffffffffffff1916149050919050565b600033905090565b600073ffffffffffffffffffffffffffffffffffffffff168373ffffffffffffffffffffffffffffffffffffffff1603610ec7576040517f08c379a0000000000000000000000000000000000000000000000000000000008152600401610ebe9061216a565b60405180910390fd5b600073ffffffffffffffffffffffffffffffffffffffff168273ffffffffffffffffffffffffffffffffffffffff1603610f36576040517f08c379a0000000000000000000000000000000000000000000000000000000008152600401610f2d906121fc565b60405180910390fd5b80600160008573ffffffffffffffffffffffffffffffffffffffff1673ffffffffffffffffffffffffffffffffffffffff16815260200190815260200160002060008473ffffffffffffffffffffffffffffffffffffffff1673ffffffffffffffffffffffffffffffffffffffff168152602001908152602001600020819055508173ffffffffffffffffffffffffffffffffffffffff168373ffffffffffffffffffffffffffffffffffffffff167f8c5be1e5ebec7d5bd14f71427d1e84f3dd0314c0f7b2291e5b200ac8c7c3b925836040516110149190611b9d565b60405180910390a3505050565b600061102d8484610d5f565b90507fffffffffffffffffffffffffffffffffffffffffffffffffffffffffffffffff81146110a75781811015611099576040517f08c379a000000000000000000000000000000000000000000000000000000000815260040161109090612268565b60405180910390fd5b6110a68484848403610e58565b5b50505050565b600073ffffffffffffffffffffffffffffffffffffffff168373ffffffffffffffffffffffffffffffffffffffff160361111c576040517f08c379a0000000000000000000000000000000000000000000000000000000008152600401611113906122fa565b60405180910390fd5b600073ffffffffffffffffffffffffffffffffffffffff168273ffffffffffffffffffffffffffffffffffffffff160361118b576040517f08c379a00000000000000000000000000000000000000000000000000000000081526004016111829061238c565b60405180910390fd5b611196838383611650565b60008060008573ffffffffffffffffffffffffffffffffffffffff1673ffffffffffffffffffffffffffffffffffffffff1681526020019081526020016000205490508181101561121c576040517f08c379a00000000000000000000000000000000000000000000000000000000081526004016112139061241e565b60405180910390fd5b8181036000808673ffffffffffffffffffffffffffffffffffffffff1673ffffffffffffffffffffffffffffffffffffffff16815260200190815260200160002081905550816000808573ffffffffffffffffffffffffffffffffffffffff1673ffffffffffffffffffffffffffffffffffffffff168152602001908152602001600020600082825401925050819055508273ffffffffffffffffffffffffffffffffffffffff168473ffffffffffffffffffffffffffffffffffffffff167fddf252ad1be2c89b69c2b068fc378daa952ba7f163c4a11628f55a4df523b3ef8460405161130a9190611b9d565b60405180910390a361131d848484611655565b50505050565b6113348161132f610e50565b61165a565b50565b61134182826108ff565b6114145760016005600084815260200190815260200160002060000160008373ffffffffffffffffffffffffffffffffffffffff1673ffffffffffffffffffffffffffffffffffffffff16815260200190815260200160002060006101000a81548160ff0219169083151502179055506113b9610e50565b73ffffffffffffffffffffffffffffffffffffffff168173ffffffffffffffffffffffffffffffffffffffff16837f2f8788117e7eff1d82e926ec794901d17c78024a50270940304540a733656f0d60405160405180910390a45b5050565b61142282826108ff565b156114f65760006005600084815260200190815260200160002060000160008373ffffffffffffffffffffffffffffffffffffffff1673ffffffffffffffffffffffffffffffffffffffff16815260200190815260200160002060006101000a81548160ff02191690831515021790555061149b610e50565b73ffffffffffffffffffffffffffffffffffffffff168173ffffffffffffffffffffffffffffffffffffffff16837ff6391f5c32d9c69d2a47ea670b442974b53935d1edc7fd64eb21e047a839171b60405160405180910390a45b5050565b600073ffffffffffffffffffffffffffffffffffffffff168273ffffffffffffffffffffffffffffffffffffffff1603611569576040517f08c379a00000000000000000000000000000000000000000000000000000000081526004016115609061248a565b60405180910390fd5b61157560008383611650565b80600260008282546115879190611edd565b92505081905550806000808473ffffffffffffffffffffffffffffffffffffffff1673ffffffffffffffffffffffffffffffffffffffff168152602001908152602001600020600082825401925050819055508173ffffffffffffffffffffffffffffffffffffffff16600073ffffffffffffffffffffffffffffffffffffffff167fddf252ad1be2c89b69c2b068fc378daa952ba7f163c4a11628f55a4df523b3ef836040516116389190611b9d565b60405180910390a361164c60008383611655565b5050565b505050565b505050565b61166482826108ff565b6116db57611671816116df565b61167f8360001c602061170c565b60405160200161169092919061257e565b6040516020818303038152906040526040517f08c379a00000000000000000000000000000000000000000000000000000000081526004016116d29190611a98565b60405180910390fd5b5050565b60606117058273ffffffffffffffffffffffffffffffffffffffff16601460ff1661170c565b9050919050565b60606000600283600261171f91906125b8565b6117299190611edd565b67ffffffffffffffff811115611742576117416125fa565b5b6040519080825280601f01601f1916602001820160405280156117745781602001600182028036833780820191505090505b5090507f3000000000000000000000000000000000000000000000000000000000000000816000815181106117ac576117ab612629565b5b60200101907effffffffffffffffffffffffffffffffffffffffffffffffffffffffffffff1916908160001a9053507f7800000000000000000000000000000000000000000000000000000000000000816001815181106118105761180f612629565b5b60200101907effffffffffffffffffffffffffffffffffffffffffffffffffffffffffffff1916908160001a9053506000600184600261185091906125b8565b61185a9190611edd565b90505b60018111156118fa577f3031323334353637383961626364656600000000000000000000000000000000600f86166010811061189c5761189b612629565b5b1a60f81b8282815181106118b3576118b2612629565b5b60200101907effffffffffffffffffffffffffffffffffffffffffffffffffffffffffffff1916908160001a905350600485901c9450806118f390612658565b905061185d565b506000841461193e576040517f08c379a0000000000000000000000000000000000000000000000000000000008152600401611935906126cd565b60405180910390fd5b8091505092915050565b600080fd5b60007fffffffff0000000000000000000000000000000000000000000000000000000082169050919050565b6119828161194d565b811461198d57600080fd5b50565b60008135905061199f81611979565b92915050565b6000602082840312156119bb576119ba611948565b5b60006119c984828501611990565b91505092915050565b60008115159050919050565b6119e7816119d2565b82525050565b6000602082019050611a0260008301846119de565b92915050565b600081519050919050565b600082825260208201905092915050565b60005b83811015611a42578082015181840152602081019050611a27565b60008484015250505050565b6000601f19601f8301169050919050565b6000611a6a82611a08565b611a748185611a13565b9350611a84818560208601611a24565b611a8d81611a4e565b840191505092915050565b60006020820190508181036000830152611ab28184611a5f565b905092915050565b600073ffffffffffffffffffffffffffffffffffffffff82169050919050565b6000611ae582611aba565b9050919050565b611af581611ada565b8114611b0057600080fd5b50565b600081359050611b1281611aec565b92915050565b6000819050919050565b611b2b81611b18565b8114611b3657600080fd5b50565b600081359050611b4881611b22565b92915050565b60008060408385031215611b6557611b64611948565b5b6000611b7385828601611b03565b9250506020611b8485828601611b39565b9150509250929050565b611b9781611b18565b82525050565b6000602082019050611bb26000830184611b8e565b92915050565b600080600060608486031215611bd157611bd0611948565b5b6000611bdf86828701611b03565b9350506020611bf086828701611b03565b9250506040611c0186828701611b39565b9150509250925092565b6000819050919050565b611c1e81611c0b565b8114611c2957600080fd5b50565b600081359050611c3b81611c15565b92915050565b600060208284031215611c5757611c56611948565b5b6000611c6584828501611c2c565b91505092915050565b611c7781611c0b565b82525050565b6000602082019050611c926000830184611c6e565b92915050565b600060208284031215611cae57611cad611948565b5b6000611cbc84828501611b03565b91505092915050565b60008060408385031215611cdc57611cdb611948565b5b6000611cea85828601611c2c565b9250506020611cfb85828601611b03565b9150509250929050565b600060ff82169050919050565b611d1b81611d05565b82525050565b6000602082019050611d366000830184611d12565b92915050565b60008060408385031215611d5357611d52611948565b5b6000611d6185828601611b39565b9250506020611d7285828601611b39565b9150509250929050565b60008060408385031215611d9357611d92611948565b5b6000611da185828601611b03565b9250506020611db285828601611b03565b9150509250929050565b7f4e487b7100000000000000000000000000000000000000000000000000000000600052602260045260246000fd5b60006002820490506001821680611e0357607f821691505b602082108103611e1657611e15611dbc565b5b50919050565b7f416363657373436f6e74726f6c3a2063616e206f6e6c792072656e6f756e636560008201527f20726f6c657320666f722073656c660000000000000000000000000000000000602082015250565b6000611e78602f83611a13565b9150611e8382611e1c565b604082019050919050565b60006020820190508181036000830152611ea781611e6b565b9050919050565b7f4e487b7100000000000000000000000000000000000000000000000000000000600052601160045260246000fd5b6000611ee882611b18565b9150611ef383611b18565b9250828201905080821115611f0b57611f0a611eae565b5b92915050565b611f1a81611ada565b82525050565b6000602082019050611f356000830184611f11565b92915050565b7f43616c6c6572206973206e6f742061206d696e74657200000000000000000000600082015250565b6000611f71601683611a13565b9150611f7c82611f3b565b602082019050919050565b60006020820190508181036000830152611fa081611f64565b9050919050565b7f5265737472696374656420746f2061646d696e73000000000000000000000000600082015250565b6000611fdd601483611a13565b9150611fe882611fa7565b602082019050919050565b6000602082019050818103600083015261200c81611fd0565b9050919050565b7f45524332303a2064656372656173656420616c6c6f77616e63652062656c6f7760008201527f207a65726f000000000000000000000000000000000000000000000000000000602082015250565b600061206f602583611a13565b915061207a82612013565b604082019050919050565b6000602082019050818103600083015261209e81612062565b9050919050565b600060a0820190506120ba6000830188611f11565b6120c76020830187611f11565b6120d46040830186611c6e565b6120e16060830185611c6e565b6120ee6080830184611c6e565b9695505050505050565b7f45524332303a20617070726f76652066726f6d20746865207a65726f2061646460008201527f7265737300000000000000000000000000000000000000000000000000000000602082015250565b6000612154602483611a13565b915061215f826120f8565b604082019050919050565b6000602082019050818103600083015261218381612147565b9050919050565b7f45524332303a20617070726f766520746f20746865207a65726f20616464726560008201527f7373000000000000000000000000000000000000000000000000000000000000602082015250565b60006121e6602283611a13565b91506121f18261218a565b604082019050919050565b60006020820190508181036000830152612215816121d9565b9050919050565b7f45524332303a20696e73756666696369656e7420616c6c6f77616e6365000000600082015250565b6000612252601d83611a13565b915061225d8261221c565b602082019050919050565b6000602082019050818103600083015261228181612245565b9050919050565b7f45524332303a207472616e736665722066726f6d20746865207a65726f20616460008201527f6472657373000000000000000000000000000000000000000000000000000000602082015250565b60006122e4602583611a13565b91506122ef82612288565b604082019050919050565b60006020820190508181036000830152612313816122d7565b9050919050565b7f45524332303a207472616e7366657220746f20746865207a65726f206164647260008201527f6573730000000000000000000000000000000000000000000000000000000000602082015250565b6000612376602383611a13565b91506123818261231a565b604082019050919050565b600060208201905081810360008301526123a581612369565b9050919050565b7f45524332303a207472616e7366657220616d6f756e742065786365656473206260008201527f616c616e63650000000000000000000000000000000000000000000000000000602082015250565b6000612408602683611a13565b9150612413826123ac565b604082019050919050565b60006020820190508181036000830152612437816123fb565b9050919050565b7f45524332303a206d696e7420746f20746865207a65726f206164647265737300600082015250565b6000612474601f83611a13565b915061247f8261243e565b602082019050919050565b600060208201905081810360008301526124a381612467565b9050919050565b600081905092915050565b7f416363657373436f6e74726f6c3a206163636f756e7420000000000000000000600082015250565b60006124eb6017836124aa565b91506124f6826124b5565b601782019050919050565b600061250c82611a08565b61251681856124aa565b9350612526818560208601611a24565b80840191505092915050565b7f206973206d697373696e6720726f6c6520000000000000000000000000000000600082015250565b60006125686011836124aa565b915061257382612532565b601182019050919050565b6000612589826124de565b91506125958285612501565b91506125a08261255b565b91506125ac8284612501565b91508190509392505050565b60006125c382611b18565b91506125ce83611b18565b92508282026125dc81611b18565b915082820484148315176125f3576125f2611eae565b5b5092915050565b7f4e487b7100000000000000000000000000000000000000000000000000000000600052604160045260246000fd5b7f4e487b7100000000000000000000000000000000000000000000000000000000600052603260045260246000fd5b600061266382611b18565b91506000820361267657612675611eae565b5b600182039050919050565b7f537472696e67733a20686578206c656e67746820696e73756666696369656e74600082015250565b60006126b7602083611a13565b91506126c282612681565b602082019050919050565b600060208201905081810360008301526126e6816126aa565b905091905056fea2646970667358221220ab05710ccdfa3e60c6928e18374c947960a24cdb5a747986cb0a27b66e3bc20d64736f6c63430008110033",
  "immutableReferences": {},
  "source": "// SPDX-License-Identifier: MIT\r\n\r\npragma solidity ^0.8.0;\r\n\r\nimport \"@openzeppelin/contracts/token/ERC20/ERC20.sol\";\r\nimport \"@openzeppelin/contracts/access/AccessControl.sol\";\r\n\r\ncontract JewelCoin is ERC20, AccessControl {\r\n   bytes32 public constant MINTER_ROLE = keccak256(\"MINTER_ROLE\");\r\n   address destinatario;\r\n\r\n   //mapping che associa il prezzo ad un item\r\n   mapping(uint => uint) private pricesMapping;\r\n\r\n   constructor(\r\n        string memory name,\r\n        string memory symbol,\r\n        uint256 initialSupply) ERC20(name, symbol) {\r\n      _mint(msg.sender, initialSupply);\r\n      _setupRole(DEFAULT_ADMIN_ROLE, msg.sender);\r\n      _setRoleAdmin(MINTER_ROLE, DEFAULT_ADMIN_ROLE);\r\n\r\n      pricesMapping[0] = 20000000000000000000;\r\n      pricesMapping[1] = 40000000000000000000;\r\n      pricesMapping[2] = 40000000000000000000;\r\n      pricesMapping[3] = 50000000000000000000;\r\n      pricesMapping[4] = 80000000000000000000;\r\n      pricesMapping[5] = 110000000000000000000;\r\n      pricesMapping[6] = 120000000000000000000;\r\n      pricesMapping[7] = 250000000000000000000;\r\n\r\n   }\r\n\r\n   event Debug(address user, address sender, bytes32 role, bytes32 adminRole, bytes32 senderRole);\r\n   event ChecksoloAdmin(address user);\r\n   event ChecksoloMinters(address user);\r\n\r\n   // Modificatore soloAdmin\r\nmodifier soloAdmin() {\r\n      // Emette un evento ChecksoloAdmin che registra il mittente\r\n      emit ChecksoloAdmin(msg.sender);\r\n      // Controlla se il mittente  un amministratore\r\n      require(isAdmin(msg.sender), \"Restricted to admins\");\r\n      // Procede con l'operazione \r\n      _;\r\n   }\r\n\r\n// Modificatore soloMinters\r\nmodifier soloMinters() {\r\n      // Emette un evento ChecksoloMinters che registra il mittente\r\n      emit ChecksoloMinters(msg.sender);\r\n      // Controlla se il mittente  un minter\r\n      require(isMinter(msg.sender), \"Caller is not a minter\");\r\n      // Procede con l'operazione \r\n      _;\r\n   }\r\n\r\n// Funzione per verificare se un account  un amministratore\r\nfunction isAdmin(address account) public virtual view returns (bool) {\r\n      // Verifica se l'account ha il ruolo di amministratore predefinito\r\n      return hasRole(DEFAULT_ADMIN_ROLE, account);\r\n   }\r\n\r\n// Funzione per verificare se un account  un minter\r\nfunction isMinter(address account) public virtual view returns (bool) {\r\n      // Verifica se l'account ha il ruolo di minter\r\n      return hasRole(MINTER_ROLE, account);\r\n   }\r\n\r\n// Funzione di coniazione\r\nfunction mint(address to, uint256 amount) public soloMinters {\r\n      // Esegue la coniazione\r\n      _mint(to, amount);\r\n    }\r\n\r\n// Funzione per aggiungere un nuovo minter\r\nfunction addMinterRole(address to) public soloAdmin {\r\n      // Emette un evento di debug per registrare l'operazione\r\n      emit Debug(to, msg.sender, MINTER_ROLE, getRoleAdmin(MINTER_ROLE), DEFAULT_ADMIN_ROLE);\r\n      // Assegna il ruolo di minter all'account\r\n      grantRole(MINTER_ROLE, to);\r\n    }\r\n\r\n// Funzione per rimuovere il ruolo di minter da un account\r\nfunction removeMinterRole (address to) public {\r\n      // Rimuove il ruolo di minter dall'account\r\n      renounceRole(MINTER_ROLE, to);\r\n    }\r\n\r\n// Funzione per impostare un destinatario\r\nfunction setDestinatario (address to) public soloAdmin{\r\n      // Imposta il destinatario\r\n      destinatario=to;\r\n    }\r\n\r\n   \r\n    // Funzione per pagare un elemento\r\nfunction payItem(uint256 price, uint itemId) public returns (uint){\r\n      // Controlla che il prezzo memorizzato per l'elemento corrisponda a quello specificato\r\n      require(pricesMapping[itemId]==price);\r\n      // Controlla che il pagamento sia stato eseguito con successo all'indirizzo del gestore della CryptoGym\r\n      require(transfer(0x78f247fe3ccee2AbB9eA8a354f186cE5EB1dF538,price));\r\n      // Restituisce l'ID dell'elemento\r\n      return itemId;\r\n    }\r\n\r\n}\r\n",
  "sourcePath": "C:\\Users\\roach\\Desktop\\universit\\magistrale cloud computing\\corsi da seguire\\Sicurezza dei Dati\\NFJ\\contracts\\JewelCoin.sol",
  "compiler": {
    "name": "solc",
    "version": "0.8.17+commit.8df45f5f.Emscripten.clang"
  },
  "schemaVersion": "3.4.16",
  "updatedAt": "2024-01-24T20:02:17.460Z",
  "devdoc": {
    "kind": "dev",
    "methods": {
      "allowance(address,address)": {
        "details": "See {IERC20-allowance}."
      },
      "approve(address,uint256)": {
        "details": "See {IERC20-approve}. NOTE: If `amount` is the maximum `uint256`, the allowance is not updated on `transferFrom`. This is semantically equivalent to an infinite approval. Requirements: - `spender` cannot be the zero address."
      },
      "balanceOf(address)": {
        "details": "See {IERC20-balanceOf}."
      },
      "decimals()": {
        "details": "Returns the number of decimals used to get its user representation. For example, if `decimals` equals `2`, a balance of `505` tokens should be displayed to a user as `5.05` (`505 / 10 ** 2`). Tokens usually opt for a value of 18, imitating the relationship between Ether and Wei. This is the value {ERC20} uses, unless this function is overridden; NOTE: This information is only used for _display_ purposes: it in no way affects any of the arithmetic of the contract, including {IERC20-balanceOf} and {IERC20-transfer}."
      },
      "decreaseAllowance(address,uint256)": {
        "details": "Atomically decreases the allowance granted to `spender` by the caller. This is an alternative to {approve} that can be used as a mitigation for problems described in {IERC20-approve}. Emits an {Approval} event indicating the updated allowance. Requirements: - `spender` cannot be the zero address. - `spender` must have allowance for the caller of at least `subtractedValue`."
      },
      "getRoleAdmin(bytes32)": {
        "details": "Returns the admin role that controls `role`. See {grantRole} and {revokeRole}. To change a role's admin, use {_setRoleAdmin}."
      },
      "grantRole(bytes32,address)": {
        "details": "Grants `role` to `account`. If `account` had not been already granted `role`, emits a {RoleGranted} event. Requirements: - the caller must have ``role``'s admin role. May emit a {RoleGranted} event."
      },
      "hasRole(bytes32,address)": {
        "details": "Returns `true` if `account` has been granted `role`."
      },
      "increaseAllowance(address,uint256)": {
        "details": "Atomically increases the allowance granted to `spender` by the caller. This is an alternative to {approve} that can be used as a mitigation for problems described in {IERC20-approve}. Emits an {Approval} event indicating the updated allowance. Requirements: - `spender` cannot be the zero address."
      },
      "name()": {
        "details": "Returns the name of the token."
      },
      "renounceRole(bytes32,address)": {
        "details": "Revokes `role` from the calling account. Roles are often managed via {grantRole} and {revokeRole}: this function's purpose is to provide a mechanism for accounts to lose their privileges if they are compromised (such as when a trusted device is misplaced). If the calling account had been revoked `role`, emits a {RoleRevoked} event. Requirements: - the caller must be `account`. May emit a {RoleRevoked} event."
      },
      "revokeRole(bytes32,address)": {
        "details": "Revokes `role` from `account`. If `account` had been granted `role`, emits a {RoleRevoked} event. Requirements: - the caller must have ``role``'s admin role. May emit a {RoleRevoked} event."
      },
      "supportsInterface(bytes4)": {
        "details": "See {IERC165-supportsInterface}."
      },
      "symbol()": {
        "details": "Returns the symbol of the token, usually a shorter version of the name."
      },
      "totalSupply()": {
        "details": "See {IERC20-totalSupply}."
      },
      "transfer(address,uint256)": {
        "details": "See {IERC20-transfer}. Requirements: - `to` cannot be the zero address. - the caller must have a balance of at least `amount`."
      },
      "transferFrom(address,address,uint256)": {
        "details": "See {IERC20-transferFrom}. Emits an {Approval} event indicating the updated allowance. This is not required by the EIP. See the note at the beginning of {ERC20}. NOTE: Does not update the allowance if the current allowance is the maximum `uint256`. Requirements: - `from` and `to` cannot be the zero address. - `from` must have a balance of at least `amount`. - the caller must have allowance for ``from``'s tokens of at least `amount`."
      }
    },
    "version": 1
  },
  "userdoc": {
    "kind": "user",
    "methods": {},
    "version": 1
  }
}